{
  "contractName": "Election",
  "abi": [
    {
      "anonymous": false,
      "inputs": [
        {
          "indexed": false,
          "internalType": "string",
          "name": "_name",
          "type": "string"
        },
        {
          "indexed": false,
          "internalType": "string",
          "name": "_logoLink",
          "type": "string"
        },
        {
          "indexed": false,
          "internalType": "int16",
          "name": "_partyId",
          "type": "int16"
        },
        {
          "indexed": false,
          "internalType": "uint32",
          "name": "_pinCode",
          "type": "uint32"
        }
      ],
      "name": "CandidateCreated",
      "type": "event"
    },
    {
      "anonymous": false,
      "inputs": [
        {
          "indexed": true,
          "internalType": "address",
          "name": "previousOwner",
          "type": "address"
        },
        {
          "indexed": true,
          "internalType": "address",
          "name": "newOwner",
          "type": "address"
        }
      ],
      "name": "OwnershipTransferred",
      "type": "event"
    },
    {
      "anonymous": false,
      "inputs": [
        {
          "indexed": false,
          "internalType": "string",
          "name": "_name",
          "type": "string"
        },
        {
          "indexed": false,
          "internalType": "string",
          "name": "_logoLink",
          "type": "string"
        }
      ],
      "name": "PoliticalPartyCreated",
      "type": "event"
    },
    {
      "anonymous": false,
      "inputs": [
        {
          "indexed": true,
          "internalType": "address",
          "name": "_id",
          "type": "address"
        }
      ],
      "name": "Vote",
      "type": "event"
    },
    {
      "anonymous": false,
      "inputs": [
        {
          "indexed": true,
          "internalType": "address",
          "name": "_id",
          "type": "address"
        }
      ],
      "name": "VoterAdded",
      "type": "event"
    },
    {
      "constant": true,
      "inputs": [
        {
          "internalType": "uint32",
          "name": "",
          "type": "uint32"
        },
        {
          "internalType": "uint256",
          "name": "",
          "type": "uint256"
        }
      ],
      "name": "districtToCandidates",
      "outputs": [
        {
          "internalType": "string",
          "name": "name",
          "type": "string"
        },
        {
          "internalType": "string",
          "name": "logoLink",
          "type": "string"
        },
        {
          "internalType": "int16",
          "name": "partyId",
          "type": "int16"
        },
        {
          "internalType": "uint32",
          "name": "votes",
          "type": "uint32"
        }
      ],
      "payable": false,
      "stateMutability": "view",
      "type": "function"
    },
    {
      "constant": true,
      "inputs": [],
      "name": "isOwner",
      "outputs": [
        {
          "internalType": "bool",
          "name": "",
          "type": "bool"
        }
      ],
      "payable": false,
      "stateMutability": "view",
      "type": "function"
    },
    {
      "constant": true,
      "inputs": [],
      "name": "owner",
      "outputs": [
        {
          "internalType": "address",
          "name": "",
          "type": "address"
        }
      ],
      "payable": false,
      "stateMutability": "view",
      "type": "function"
    },
    {
      "constant": true,
      "inputs": [
        {
          "internalType": "uint256",
          "name": "",
          "type": "uint256"
        }
      ],
      "name": "parties",
      "outputs": [
        {
          "internalType": "string",
          "name": "name",
          "type": "string"
        },
        {
          "internalType": "string",
          "name": "logoLink",
          "type": "string"
        },
        {
          "internalType": "uint16",
          "name": "seats",
          "type": "uint16"
        }
      ],
      "payable": false,
      "stateMutability": "view",
      "type": "function"
    },
    {
      "constant": true,
      "inputs": [],
      "name": "phase",
      "outputs": [
        {
          "internalType": "uint8",
          "name": "",
          "type": "uint8"
        }
      ],
      "payable": false,
      "stateMutability": "view",
      "type": "function"
    },
    {
      "constant": false,
      "inputs": [],
      "name": "renounceOwnership",
      "outputs": [],
      "payable": false,
      "stateMutability": "nonpayable",
      "type": "function"
    },
    {
      "constant": false,
      "inputs": [
        {
          "internalType": "address",
          "name": "newOwner",
          "type": "address"
        }
      ],
      "name": "transferOwnership",
      "outputs": [],
      "payable": false,
      "stateMutability": "nonpayable",
      "type": "function"
    },
    {
      "constant": true,
      "inputs": [
        {
          "internalType": "address",
          "name": "",
          "type": "address"
        }
      ],
      "name": "voters",
      "outputs": [
        {
          "internalType": "bool",
          "name": "canVote",
          "type": "bool"
        },
        {
          "internalType": "uint32",
          "name": "pinCode",
          "type": "uint32"
        }
      ],
      "payable": false,
      "stateMutability": "view",
      "type": "function"
    },
    {
      "constant": true,
      "inputs": [],
      "name": "votingPeriod",
      "outputs": [
        {
          "internalType": "uint256",
          "name": "",
          "type": "uint256"
        }
      ],
      "payable": false,
      "stateMutability": "view",
      "type": "function"
    },
    {
      "constant": true,
      "inputs": [],
      "name": "getParties",
      "outputs": [
        {
          "internalType": "uint256",
          "name": "",
          "type": "uint256"
        }
      ],
      "payable": false,
      "stateMutability": "view",
      "type": "function"
    },
    {
      "constant": true,
      "inputs": [
        {
          "internalType": "uint32",
          "name": "district",
          "type": "uint32"
        }
      ],
      "name": "getCandidateCount",
      "outputs": [
        {
          "internalType": "uint256",
          "name": "",
          "type": "uint256"
        }
      ],
      "payable": false,
      "stateMutability": "view",
      "type": "function"
    },
    {
      "constant": false,
      "inputs": [],
      "name": "startVoting",
      "outputs": [],
      "payable": false,
      "stateMutability": "nonpayable",
      "type": "function"
    },
    {
      "constant": false,
      "inputs": [
        {
          "internalType": "string",
          "name": "_name",
          "type": "string"
        },
        {
          "internalType": "string",
          "name": "_logoLink",
          "type": "string"
        }
      ],
      "name": "createPoliticalParty",
      "outputs": [
        {
          "internalType": "uint256",
          "name": "",
          "type": "uint256"
        }
      ],
      "payable": false,
      "stateMutability": "nonpayable",
      "type": "function"
    },
    {
      "constant": false,
      "inputs": [
        {
          "internalType": "string",
          "name": "_name",
          "type": "string"
        },
        {
          "internalType": "string",
          "name": "_logoLink",
          "type": "string"
        },
        {
          "internalType": "int16",
          "name": "_partyId",
          "type": "int16"
        },
        {
          "internalType": "uint32",
          "name": "_pinCode",
          "type": "uint32"
        }
      ],
      "name": "addCandidate",
      "outputs": [],
      "payable": false,
      "stateMutability": "nonpayable",
      "type": "function"
    },
    {
      "constant": false,
      "inputs": [
        {
          "internalType": "address",
          "name": "_voterAccount",
          "type": "address"
        },
        {
          "internalType": "uint32",
          "name": "_pinCode",
          "type": "uint32"
        }
      ],
      "name": "addVoter",
      "outputs": [],
      "payable": false,
      "stateMutability": "nonpayable",
      "type": "function"
    },
    {
      "constant": false,
      "inputs": [
        {
          "internalType": "uint16",
          "name": "_candidateId",
          "type": "uint16"
        }
      ],
      "name": "vote",
      "outputs": [],
      "payable": false,
      "stateMutability": "nonpayable",
      "type": "function"
    },
    {
      "constant": false,
      "inputs": [],
      "name": "computeResult",
      "outputs": [],
      "payable": false,
      "stateMutability": "nonpayable",
      "type": "function"
    }
  ],
  "bytecode": "0x60806040526001600060146101000a81548160ff021916908360ff160217905550336000806101000a81548173ffffffffffffffffffffffffffffffffffffffff021916908373ffffffffffffffffffffffffffffffffffffffff1602179055506000809054906101000a900473ffffffffffffffffffffffffffffffffffffffff1673ffffffffffffffffffffffffffffffffffffffff16600073ffffffffffffffffffffffffffffffffffffffff167f8be0079c531659141344cd1fd0a4f28419497f9722a3daafe3b4186f6b6457e060405160405180910390a3612498806100eb6000396000f3fe608060405234801561001057600080fd5b506004361061010b5760003560e01c80637cac9736116100a2578063a8311aa811610071578063a8311aa8146106a1578063b1c9fe6e146106bf578063c8b8745c146106e3578063ddb6e11614610737578063f2fde38b146107695761010b565b80637cac9736146105bc5780638da5cb5b146105c65780638f32d59b14610610578063a3ec138d146106325761010b565b80634e1121bc116100de5780634e1121bc1461026b5780636abd23171461034d57806370651a1814610490578063715018a6146105b25761010b565b806302a251a314610110578063045397e01461012e57806314972f09146102195780631ec6b60a14610261575b600080fd5b6101186107ad565b6040518082815260200191505060405180910390f35b6102176004803603608081101561014457600080fd5b810190808035906020019064010000000081111561016157600080fd5b82018360208201111561017357600080fd5b8035906020019184600183028401116401000000008311171561019557600080fd5b9091929391929390803590602001906401000000008111156101b657600080fd5b8201836020820111156101c857600080fd5b803590602001918460018302840111640100000000831117156101ea57600080fd5b9091929391929390803560010b9060200190929190803563ffffffff1690602001909291905050506107b3565b005b61024b6004803603602081101561022f57600080fd5b81019080803563ffffffff169060200190929190505050610f1d565b6040518082815260200191505060405180910390f35b610269610f49565b005b6103376004803603604081101561028157600080fd5b810190808035906020019064010000000081111561029e57600080fd5b8201836020820111156102b057600080fd5b803590602001918460018302840111640100000000831117156102d257600080fd5b9091929391929390803590602001906401000000008111156102f357600080fd5b82018360208201111561030557600080fd5b8035906020019184600183028401116401000000008311171561032757600080fd5b9091929391929390505050610ffa565b6040518082815260200191505060405180910390f35b6103896004803603604081101561036357600080fd5b81019080803563ffffffff16906020019092919080359060200190929190505050611269565b6040518080602001806020018560010b60010b81526020018463ffffffff1663ffffffff168152602001838103835287818151815260200191508051906020019080838360005b838110156103eb5780820151818401526020810190506103d0565b50505050905090810190601f1680156104185780820380516001836020036101000a031916815260200191505b50838103825286818151815260200191508051906020019080838360005b83811015610451578082015181840152602081019050610436565b50505050905090810190601f16801561047e5780820380516001836020036101000a031916815260200191505b50965050505050505060405180910390f35b6104bc600480360360208110156104a657600080fd5b8101908080359060200190929190505050611400565b6040518080602001806020018461ffff1661ffff168152602001838103835286818151815260200191508051906020019080838360005b8381101561050e5780820151818401526020810190506104f3565b50505050905090810190601f16801561053b5780820380516001836020036101000a031916815260200191505b50838103825285818151815260200191508051906020019080838360005b83811015610574578082015181840152602081019050610559565b50505050905090810190601f1680156105a15780820380516001836020036101000a031916815260200191505b509550505050505060405180910390f35b6105ba611575565b005b6105c4611645565b005b6105ce611cb9565b604051808273ffffffffffffffffffffffffffffffffffffffff1673ffffffffffffffffffffffffffffffffffffffff16815260200191505060405180910390f35b610618611ce2565b604051808215151515815260200191505060405180910390f35b6106746004803603602081101561064857600080fd5b81019080803573ffffffffffffffffffffffffffffffffffffffff169060200190929190505050611d39565b60405180831515151581526020018263ffffffff1663ffffffff1681526020019250505060405180910390f35b6106a9611d7a565b6040518082815260200191505060405180910390f35b6106c7611d87565b604051808260ff1660ff16815260200191505060405180910390f35b610735600480360360408110156106f957600080fd5b81019080803573ffffffffffffffffffffffffffffffffffffffff169060200190929190803563ffffffff169060200190929190505050611d9a565b005b6107676004803603602081101561074d57600080fd5b81019080803561ffff169060200190929190505050611f21565b005b6107ab6004803603602081101561077f57600080fd5b81019080803573ffffffffffffffffffffffffffffffffffffffff16906020019092919050505061225a565b005b60055481565b6107bb611ce2565b6107c457600080fd5b6001600060149054906101000a900460ff1660ff161461084c576040517f08c379a000000000000000000000000000000000000000000000000000000000815260040180806020018281038252601a8152602001807f526567697374726174696f6e205068617365206973204f76657200000000000081525060200191505060405180910390fd5b60038054905060010b8260010b12801561088957507fffffffffffffffffffffffffffffffffffffffffffffffffffffffffffffffff8260010b12155b6108fb576040517f08c379a00000000000000000000000000000000000000000000000000000000081526004018080602001828103825260178152602001807f496e76616c696420506f6c69746963616c20506172747900000000000000000081525060200191505060405180910390fd5b6000600260008363ffffffff1663ffffffff16815260200190815260200160002080549050141561097857600481908060018154018082558091505090600182039060005260206000209060089182820401919006600402909192909190916101000a81548163ffffffff021916908363ffffffff160217905550505b7fffffffffffffffffffffffffffffffffffffffffffffffffffffffffffffffff8260010b14610cd457600260008263ffffffff1663ffffffff168152602001908152602001600020604051806080016040528088888080601f016020809104026020016040519081016040528093929190818152602001838380828437600081840152601f19601f82011690508083019250505050505050815260200160038561ffff1681548110610a2757fe5b90600052602060002090600302016001018054600181600116156101000203166002900480601f016020809104026020016040519081016040528092919081815260200182805460018160011615610100020316600290048015610acc5780601f10610aa157610100808354040283529160200191610acc565b820191906000526020600020905b815481529060010190602001808311610aaf57829003601f168201915b505050505081526020018460010b8152602001600063ffffffff16815250908060018154018082558091505090600182039060005260206000209060030201600090919290919091506000820151816000019080519060200190610b3192919061238d565b506020820151816001019080519060200190610b4e92919061238d565b5060408201518160020160006101000a81548161ffff021916908360010b61ffff16021790555060608201518160020160026101000a81548163ffffffff021916908363ffffffff1602179055505050507f67cc0f353f5f34a1c4a33aaa051130d0ec8a071c57e4cd5e55cfe7f1e7c05a43868660038561ffff1681548110610bd357fe5b906000526020600020906003020160010185856040518080602001806020018560010b60010b81526020018463ffffffff1663ffffffff1681526020018381038352888882818152602001925080828437600081840152601f19601f820116905080830192505050838103825286818154600181600116156101000203166002900481526020019150805460018160011615610100020316600290048015610cbc5780601f10610c9157610100808354040283529160200191610cbc565b820191906000526020600020905b815481529060010190602001808311610c9f57829003601f168201915b505097505050505050505060405180910390a1610f15565b600260008263ffffffff1663ffffffff168152602001908152602001600020604051806080016040528088888080601f016020809104026020016040519081016040528093929190818152602001838380828437600081840152601f19601f82011690508083019250505050505050815260200186868080601f016020809104026020016040519081016040528093929190818152602001838380828437600081840152601f19601f8201169050808301925050505050505081526020018460010b8152602001600063ffffffff16815250908060018154018082558091505090600182039060005260206000209060030201600090919290919091506000820151816000019080519060200190610ded92919061238d565b506020820151816001019080519060200190610e0a92919061238d565b5060408201518160020160006101000a81548161ffff021916908360010b61ffff16021790555060608201518160020160026101000a81548163ffffffff021916908363ffffffff1602179055505050507f67cc0f353f5f34a1c4a33aaa051130d0ec8a071c57e4cd5e55cfe7f1e7c05a438686868686866040518080602001806020018560010b60010b81526020018463ffffffff1663ffffffff1681526020018381038352898982818152602001925080828437600081840152601f19601f8201169050808301925050508381038252878782818152602001925080828437600081840152601f19601f8201169050808301925050509850505050505050505060405180910390a15b505050505050565b6000600260008363ffffffff1663ffffffff168152602001908152602001600020805490509050919050565b610f51611ce2565b610f5a57600080fd5b6001600060149054906101000a900460ff1660ff1614610fe2576040517f08c379a000000000000000000000000000000000000000000000000000000000815260040180806020018281038252600d8152602001807f496e76616c69642050686173650000000000000000000000000000000000000081525060200191505060405180910390fd5b620151804201600581905550610ff86002612277565b565b6000611004611ce2565b61100d57600080fd5b6001600060149054906101000a900460ff1660ff1614611095576040517f08c379a000000000000000000000000000000000000000000000000000000000815260040180806020018281038252601a8152602001807f526567697374726174696f6e205068617365206973204f76657200000000000081525060200191505060405180910390fd5b6003604051806060016040528087878080601f016020809104026020016040519081016040528093929190818152602001838380828437600081840152601f19601f82011690508083019250505050505050815260200185858080601f016020809104026020016040519081016040528093929190818152602001838380828437600081840152601f19601f820116905080830192505050505050508152602001600061ffff1681525090806001815401808255809150509060018203906000526020600020906003020160009091929091909150600082015181600001908051906020019061118692919061238d565b5060208201518160010190805190602001906111a392919061238d565b5060408201518160020160006101000a81548161ffff021916908361ffff1602179055505050507f9f4aaeb6bdce85d10c4ff95b54005e03164d9e84acc990fc01a44381cb9d9294858585856040518080602001806020018381038352878782818152602001925080828437600081840152601f19601f8201169050808301925050508381038252858582818152602001925080828437600081840152601f19601f820116905080830192505050965050505050505060405180910390a1949350505050565b6002602052816000526040600020818154811061128257fe5b906000526020600020906003020160009150915050806000018054600181600116156101000203166002900480601f01602080910402602001604051908101604052809291908181526020018280546001816001161561010002031660029004801561132f5780601f106113045761010080835404028352916020019161132f565b820191906000526020600020905b81548152906001019060200180831161131257829003601f168201915b505050505090806001018054600181600116156101000203166002900480601f0160208091040260200160405190810160405280929190818152602001828054600181600116156101000203166002900480156113cd5780601f106113a2576101008083540402835291602001916113cd565b820191906000526020600020905b8154815290600101906020018083116113b057829003601f168201915b5050505050908060020160009054906101000a900460010b908060020160029054906101000a900463ffffffff16905084565b6003818154811061140d57fe5b9060005260206000209060030201600091509050806000018054600181600116156101000203166002900480601f0160208091040260200160405190810160405280929190818152602001828054600181600116156101000203166002900480156114b95780601f1061148e576101008083540402835291602001916114b9565b820191906000526020600020905b81548152906001019060200180831161149c57829003601f168201915b505050505090806001018054600181600116156101000203166002900480601f0160208091040260200160405190810160405280929190818152602001828054600181600116156101000203166002900480156115575780601f1061152c57610100808354040283529160200191611557565b820191906000526020600020905b81548152906001019060200180831161153a57829003601f168201915b5050505050908060020160009054906101000a900461ffff16905083565b61157d611ce2565b61158657600080fd5b600073ffffffffffffffffffffffffffffffffffffffff166000809054906101000a900473ffffffffffffffffffffffffffffffffffffffff1673ffffffffffffffffffffffffffffffffffffffff167f8be0079c531659141344cd1fd0a4f28419497f9722a3daafe3b4186f6b6457e060405160405180910390a360008060006101000a81548173ffffffffffffffffffffffffffffffffffffffff021916908373ffffffffffffffffffffffffffffffffffffffff160217905550565b61164d611ce2565b61165657600080fd5b6002600060149054906101000a900460ff1660ff16148015611679575060055442115b6116eb576040517f08c379a000000000000000000000000000000000000000000000000000000000815260040180806020018281038252600d8152602001807f496e76616c69642050686173650000000000000000000000000000000000000081525060200191505060405180910390fd5b6002600060149054906101000a900460ff1660ff1614611773576040517f08c379a000000000000000000000000000000000000000000000000000000000815260040180806020018281038252600d8152602001807f496e76616c69642050686173650000000000000000000000000000000000000081525060200191505060405180910390fd5b60008090505b6004805490508161ffff161015611cac57600060048261ffff168154811061179d57fe5b90600052602060002090600891828204019190066004029054906101000a900463ffffffff1690506117cd61240d565b600260008363ffffffff1663ffffffff1681526020019081526020016000206000815481106117f857fe5b9060005260206000209060030201604051806080016040529081600082018054600181600116156101000203166002900480601f0160208091040260200160405190810160405280929190818152602001828054600181600116156101000203166002900480156118aa5780601f1061187f576101008083540402835291602001916118aa565b820191906000526020600020905b81548152906001019060200180831161188d57829003601f168201915b50505050508152602001600182018054600181600116156101000203166002900480601f01602080910402602001604051908101604052809291908181526020018280546001816001161561010002031660029004801561194c5780601f106119215761010080835404028352916020019161194c565b820191906000526020600020905b81548152906001019060200180831161192f57829003601f168201915b505050505081526020016002820160009054906101000a900460010b60010b60010b81526020016002820160029054906101000a900463ffffffff1663ffffffff1663ffffffff168152505090506000600190505b600260008463ffffffff1663ffffffff168152602001908152602001600020805490508161ffff161015611c1457600260008463ffffffff1663ffffffff1681526020019081526020016000208161ffff16815481106119fd57fe5b906000526020600020906003020160020160029054906101000a900463ffffffff1663ffffffff16826060015163ffffffff161015611c0757600260008463ffffffff1663ffffffff1681526020019081526020016000208161ffff1681548110611a6457fe5b9060005260206000209060030201604051806080016040529081600082018054600181600116156101000203166002900480601f016020809104026020016040519081016040528092919081815260200182805460018160011615610100020316600290048015611b165780601f10611aeb57610100808354040283529160200191611b16565b820191906000526020600020905b815481529060010190602001808311611af957829003601f168201915b50505050508152602001600182018054600181600116156101000203166002900480601f016020809104026020016040519081016040528092919081815260200182805460018160011615610100020316600290048015611bb85780601f10611b8d57610100808354040283529160200191611bb8565b820191906000526020600020905b815481529060010190602001808311611b9b57829003601f168201915b505050505081526020016002820160009054906101000a900460010b60010b60010b81526020016002820160029054906101000a900463ffffffff1663ffffffff1663ffffffff168152505091505b80806001019150506119a1565b507fffffffffffffffffffffffffffffffffffffffffffffffffffffffffffffffff816040015160010b14611c9d576003816040015161ffff1681548110611c5857fe5b9060005260206000209060030201600201600081819054906101000a900461ffff168092919060010191906101000a81548161ffff021916908361ffff160217905550505b50508080600101915050611779565b50611cb76003612277565b565b60008060009054906101000a900473ffffffffffffffffffffffffffffffffffffffff16905090565b60008060009054906101000a900473ffffffffffffffffffffffffffffffffffffffff1673ffffffffffffffffffffffffffffffffffffffff163373ffffffffffffffffffffffffffffffffffffffff1614905090565b60016020528060005260406000206000915090508060000160009054906101000a900460ff16908060000160019054906101000a900463ffffffff16905082565b6000600380549050905090565b600060149054906101000a900460ff1681565b611da2611ce2565b611dab57600080fd5b6001600060149054906101000a900460ff1660ff1614611e33576040517f08c379a000000000000000000000000000000000000000000000000000000000815260040180806020018281038252601a8152602001807f526567697374726174696f6e205068617365206973204f76657200000000000081525060200191505060405180910390fd5b60405180604001604052806001151581526020018263ffffffff16815250600160008473ffffffffffffffffffffffffffffffffffffffff1673ffffffffffffffffffffffffffffffffffffffff16815260200190815260200160002060008201518160000160006101000a81548160ff02191690831515021790555060208201518160000160016101000a81548163ffffffff021916908363ffffffff1602179055509050508173ffffffffffffffffffffffffffffffffffffffff167fa636f4a11e2d3ba7f89d042ecb0a6b886716e98cd49d8fd876ee0f73bced42b860405160405180910390a25050565b6002600060149054906101000a900460ff1660ff16148015611f44575060055442105b611fb6576040517f08c379a000000000000000000000000000000000000000000000000000000000815260040180806020018281038252600d8152602001807f496e76616c69642050686173650000000000000000000000000000000000000081525060200191505060405180910390fd5b6000600160003373ffffffffffffffffffffffffffffffffffffffff1673ffffffffffffffffffffffffffffffffffffffff168152602001908152602001600020905060008160000160019054906101000a900463ffffffff1663ffffffff1611612089576040517f08c379a00000000000000000000000000000000000000000000000000000000081526004018080602001828103825260178152602001807f566f746572206973206e6f74205265676973746572656400000000000000000081525060200191505060405180910390fd5b8060000160009054906101000a900460ff1661210d576040517f08c379a00000000000000000000000000000000000000000000000000000000081526004018080602001828103825260178152602001807f566f7465722068617320616c726561647920566f74656400000000000000000081525060200191505060405180910390fd5b60008261ffff161015801561215b5750600260008260000160019054906101000a900463ffffffff1663ffffffff1663ffffffff168152602001908152602001600020805490508261ffff16105b61216457600080fd5b6000600260008360000160019054906101000a900463ffffffff1663ffffffff1663ffffffff1681526020019081526020016000208361ffff16815481106121a857fe5b9060005260206000209060030201905080600201600281819054906101000a900463ffffffff168092919060010191906101000a81548163ffffffff021916908363ffffffff1602179055505060008260000160006101000a81548160ff0219169083151502179055503373ffffffffffffffffffffffffffffffffffffffff167ff5b08346e1e6b0b55d07ce94e81fcb198d47fbbecfea3b9a476f454c86761ec460405160405180910390a2505050565b612262611ce2565b61226b57600080fd5b61227481612295565b50565b80600060146101000a81548160ff021916908360ff16021790555050565b600073ffffffffffffffffffffffffffffffffffffffff168173ffffffffffffffffffffffffffffffffffffffff1614156122cf57600080fd5b8073ffffffffffffffffffffffffffffffffffffffff166000809054906101000a900473ffffffffffffffffffffffffffffffffffffffff1673ffffffffffffffffffffffffffffffffffffffff167f8be0079c531659141344cd1fd0a4f28419497f9722a3daafe3b4186f6b6457e060405160405180910390a3806000806101000a81548173ffffffffffffffffffffffffffffffffffffffff021916908373ffffffffffffffffffffffffffffffffffffffff16021790555050565b828054600181600116156101000203166002900490600052602060002090601f016020900481019282601f106123ce57805160ff19168380011785556123fc565b828001600101855582156123fc579182015b828111156123fb5782518255916020019190600101906123e0565b5b509050612409919061243e565b5090565b60405180608001604052806060815260200160608152602001600060010b8152602001600063ffffffff1681525090565b61246091905b8082111561245c576000816000905550600101612444565b5090565b9056fea265627a7a723158200a9a632e837186b12b93b90b6c2f02bafd05238ac13cb7c403953ebfe76c84ea64736f6c63430005100032",
  "source": "// SPDX-License-Identifier: MIT\r\npragma solidity >=0.4.21 <0.7.0;\r\n\r\nimport \"./Ownable.sol\";\r\n\r\ncontract Election is Ownable{\r\n    \r\n    struct PoliticalParty {\r\n        string name;\r\n        string logoLink;\r\n        uint16 seats;\r\n    }\r\n    \r\n    struct Candidate {\r\n        string name;\r\n        string logoLink;\r\n        int16 partyId; // -1 for individual candidates\r\n        uint32 votes;\r\n    }\r\n    \r\n    struct Voter {\r\n        bool canVote;\r\n        uint32 pinCode;\r\n    }\r\n    \r\n    uint8 public phase = 1; // 1 for registration, 2 for voting, 3 for result declared\r\n    mapping (address => Voter) public voters;\r\n    mapping (uint32 => Candidate[]) public districtToCandidates;\r\n    PoliticalParty[] public parties;\r\n    uint32[] pinCodes;\r\n    uint public votingPeriod;\r\n    \r\n    event PoliticalPartyCreated(string _name, string _logoLink);\r\n    event CandidateCreated(string _name, string _logoLink, int16 _partyId, uint32 _pinCode);\r\n    event VoterAdded(address indexed _id);\r\n    event Vote(address indexed _id);\r\n\r\n    modifier beforeEndTime() {\r\n        require(phase == 2 && block.timestamp < votingPeriod, \"Invalid Phase\");\r\n        _;\r\n    }\r\n\r\n    modifier afterEndTime() {\r\n        require(phase == 2 && block.timestamp > votingPeriod, \"Invalid Phase\");\r\n        _;\r\n    }\r\n\r\n    function getParties() public view returns (uint) {\r\n        return parties.length;\r\n    }\r\n\r\n    function getCandidateCount(uint32 district) public view returns (uint) {\r\n        return districtToCandidates[district].length;\r\n    }\r\n\r\n    function changePhase(uint8 _phase) private {\r\n        phase = _phase;\r\n    }\r\n    \r\n    function startVoting() external onlyOwner {\r\n        require(phase == 1, \"Invalid Phase\");\r\n        votingPeriod = block.timestamp + 1 days;\r\n        changePhase(2);\r\n    }\r\n\r\n    function createPoliticalParty(string calldata _name, string calldata _logoLink) external onlyOwner returns(uint) {\r\n        require(phase == 1, \"Registration Phase is Over\");\r\n        parties.push(PoliticalParty(_name, _logoLink, 0));\r\n        emit PoliticalPartyCreated(_name, _logoLink);\r\n    }\r\n    \r\n    function addCandidate(string calldata _name, string calldata _logoLink, int16 _partyId, uint32 _pinCode) external onlyOwner {\r\n        require(phase == 1, \"Registration Phase is Over\");\r\n        require(_partyId < int16(parties.length) && _partyId >= -1, \"Invalid Political Party\");\r\n        if(districtToCandidates[_pinCode].length == 0){\r\n            pinCodes.push(_pinCode);\r\n        }\r\n        if(_partyId != -1){\r\n            districtToCandidates[_pinCode].push(Candidate(_name, parties[uint16(_partyId)].logoLink, _partyId, 0));\r\n            emit CandidateCreated(_name, parties[uint16(_partyId)].logoLink, _partyId, _pinCode);\r\n        }\r\n        else{\r\n            districtToCandidates[_pinCode].push(Candidate(_name, _logoLink, _partyId, 0));\r\n            emit CandidateCreated(_name, _logoLink, _partyId, _pinCode);\r\n        }\r\n    }\r\n    \r\n    function addVoter(address _voterAccount ,uint32  _pinCode) external onlyOwner {\r\n        require(phase == 1,\"Registration Phase is Over\");\r\n        voters[_voterAccount] = Voter(true, _pinCode);\r\n        emit VoterAdded(_voterAccount);\r\n    }\r\n    \r\n    function vote(uint16 _candidateId) external beforeEndTime{\r\n        Voter storage myVoter = voters[msg.sender];\r\n        require(myVoter.pinCode > 0, \"Voter is not Registered\");\r\n        require(myVoter.canVote, \"Voter has already Voted\");\r\n        require(_candidateId >= 0 && _candidateId < districtToCandidates[myVoter.pinCode].length);\r\n        Candidate storage myCandidate = districtToCandidates[myVoter.pinCode][_candidateId];\r\n        myCandidate.votes++;\r\n        myVoter.canVote = false;\r\n        emit Vote(msg.sender);\r\n    }\r\n    \r\n    function computeResult() external onlyOwner afterEndTime{\r\n        require(phase == 2, \"Invalid Phase\");\r\n        for(uint16 i=0 ; i<pinCodes.length ; i++){\r\n            uint32 currPinCode = pinCodes[i];\r\n            Candidate memory winner = districtToCandidates[currPinCode][0];\r\n            for(uint16 j = 1; j<districtToCandidates[currPinCode].length; j++){\r\n                if(winner.votes < districtToCandidates[currPinCode][j].votes){\r\n                    winner = districtToCandidates[currPinCode][j];\r\n                }\r\n            }\r\n            if(winner.partyId!=-1){\r\n                parties[uint16(winner.partyId)].seats++;\r\n            }\r\n        }\r\n        changePhase(3);\r\n    }\r\n}",
  "sourcePath": "F:\\Block Chain\\ElectionDapp\\contracts\\Election.sol",
  "compiler": {
    "name": "solc",
    "version": "0.5.16+commit.9c3226ce.Emscripten.clang"
  },
  "schemaVersion": "3.4.3",
  "updatedAt": "2021-10-31T04:41:53.006Z",
  "networkType": "ethereum",
  "devdoc": {
    "methods": {
      "isOwner()": {
        "return": "true if `msg.sender` is the owner of the contract."
      },
      "owner()": {
        "return": "the address of the owner."
      },
      "renounceOwnership()": {
        "details": "Allows the current owner to relinquish control of the contract."
      },
      "transferOwnership(address)": {
        "details": "Allows the current owner to transfer control of the contract to a newOwner.",
        "params": {
          "newOwner": "The address to transfer ownership to."
        }
      }
    }
  },
  "userdoc": {
    "methods": {
      "renounceOwnership()": {
        "notice": "Renouncing to ownership will leave the contract without an owner. It will not be possible to call the functions with the `onlyOwner` modifier anymore."
      }
    }
  }
}