{
  "contractName": "Election",
  "abi": [
    {
      "anonymous": false,
      "inputs": [
        {
          "indexed": false,
          "internalType": "string",
          "name": "_name",
          "type": "string"
        }
      ],
      "name": "CandidateCreated",
      "type": "event"
    },
    {
      "anonymous": false,
      "inputs": [
        {
          "indexed": true,
          "internalType": "address",
          "name": "previousOwner",
          "type": "address"
        },
        {
          "indexed": true,
          "internalType": "address",
          "name": "newOwner",
          "type": "address"
        }
      ],
      "name": "OwnershipTransferred",
      "type": "event"
    },
    {
      "anonymous": false,
      "inputs": [
        {
          "indexed": false,
          "internalType": "string",
          "name": "_name",
          "type": "string"
        }
      ],
      "name": "PoliticalPartyCreated",
      "type": "event"
    },
    {
      "anonymous": false,
      "inputs": [
        {
          "indexed": true,
          "internalType": "address",
          "name": "_id",
          "type": "address"
        }
      ],
      "name": "Vote",
      "type": "event"
    },
    {
      "anonymous": false,
      "inputs": [
        {
          "indexed": true,
          "internalType": "address",
          "name": "_id",
          "type": "address"
        }
      ],
      "name": "VoterAdded",
      "type": "event"
    },
    {
      "constant": true,
      "inputs": [
        {
          "internalType": "uint32",
          "name": "",
          "type": "uint32"
        },
        {
          "internalType": "uint256",
          "name": "",
          "type": "uint256"
        }
      ],
      "name": "districtToCandidates",
      "outputs": [
        {
          "internalType": "string",
          "name": "name",
          "type": "string"
        },
        {
          "internalType": "string",
          "name": "logoLink",
          "type": "string"
        },
        {
          "internalType": "int16",
          "name": "partyId",
          "type": "int16"
        },
        {
          "internalType": "uint32",
          "name": "votes",
          "type": "uint32"
        }
      ],
      "payable": false,
      "stateMutability": "view",
      "type": "function"
    },
    {
      "constant": true,
      "inputs": [],
      "name": "isOwner",
      "outputs": [
        {
          "internalType": "bool",
          "name": "",
          "type": "bool"
        }
      ],
      "payable": false,
      "stateMutability": "view",
      "type": "function"
    },
    {
      "constant": true,
      "inputs": [],
      "name": "owner",
      "outputs": [
        {
          "internalType": "address",
          "name": "",
          "type": "address"
        }
      ],
      "payable": false,
      "stateMutability": "view",
      "type": "function"
    },
    {
      "constant": true,
      "inputs": [
        {
          "internalType": "uint256",
          "name": "",
          "type": "uint256"
        }
      ],
      "name": "parties",
      "outputs": [
        {
          "internalType": "string",
          "name": "name",
          "type": "string"
        },
        {
          "internalType": "string",
          "name": "logoLink",
          "type": "string"
        },
        {
          "internalType": "uint16",
          "name": "seats",
          "type": "uint16"
        }
      ],
      "payable": false,
      "stateMutability": "view",
      "type": "function"
    },
    {
      "constant": true,
      "inputs": [],
      "name": "phase",
      "outputs": [
        {
          "internalType": "uint8",
          "name": "",
          "type": "uint8"
        }
      ],
      "payable": false,
      "stateMutability": "view",
      "type": "function"
    },
    {
      "constant": false,
      "inputs": [],
      "name": "renounceOwnership",
      "outputs": [],
      "payable": false,
      "stateMutability": "nonpayable",
      "type": "function"
    },
    {
      "constant": false,
      "inputs": [
        {
          "internalType": "address",
          "name": "newOwner",
          "type": "address"
        }
      ],
      "name": "transferOwnership",
      "outputs": [],
      "payable": false,
      "stateMutability": "nonpayable",
      "type": "function"
    },
    {
      "constant": true,
      "inputs": [
        {
          "internalType": "address",
          "name": "",
          "type": "address"
        }
      ],
      "name": "voters",
      "outputs": [
        {
          "internalType": "bool",
          "name": "canVote",
          "type": "bool"
        },
        {
          "internalType": "uint32",
          "name": "pinCode",
          "type": "uint32"
        }
      ],
      "payable": false,
      "stateMutability": "view",
      "type": "function"
    },
    {
      "constant": true,
      "inputs": [],
      "name": "votingPeriod",
      "outputs": [
        {
          "internalType": "uint256",
          "name": "",
          "type": "uint256"
        }
      ],
      "payable": false,
      "stateMutability": "view",
      "type": "function"
    },
    {
      "constant": true,
      "inputs": [],
      "name": "getParties",
      "outputs": [
        {
          "internalType": "uint256",
          "name": "",
          "type": "uint256"
        }
      ],
      "payable": false,
      "stateMutability": "view",
      "type": "function"
    },
    {
      "constant": true,
      "inputs": [
        {
          "internalType": "uint32",
          "name": "district",
          "type": "uint32"
        }
      ],
      "name": "getCandidateCount",
      "outputs": [
        {
          "internalType": "uint256",
          "name": "",
          "type": "uint256"
        }
      ],
      "payable": false,
      "stateMutability": "view",
      "type": "function"
    },
    {
      "constant": false,
      "inputs": [],
      "name": "startVoting",
      "outputs": [],
      "payable": false,
      "stateMutability": "nonpayable",
      "type": "function"
    },
    {
      "constant": false,
      "inputs": [
        {
          "internalType": "string",
          "name": "_name",
          "type": "string"
        },
        {
          "internalType": "string",
          "name": "_logoLink",
          "type": "string"
        }
      ],
      "name": "createPoliticalParty",
      "outputs": [
        {
          "internalType": "uint256",
          "name": "",
          "type": "uint256"
        }
      ],
      "payable": false,
      "stateMutability": "nonpayable",
      "type": "function"
    },
    {
      "constant": false,
      "inputs": [
        {
          "internalType": "string",
          "name": "_name",
          "type": "string"
        },
        {
          "internalType": "string",
          "name": "_logoLink",
          "type": "string"
        },
        {
          "internalType": "int16",
          "name": "_partyId",
          "type": "int16"
        },
        {
          "internalType": "uint32",
          "name": "_pinCode",
          "type": "uint32"
        }
      ],
      "name": "addCandidate",
      "outputs": [],
      "payable": false,
      "stateMutability": "nonpayable",
      "type": "function"
    },
    {
      "constant": false,
      "inputs": [
        {
          "internalType": "address",
          "name": "_voterAccount",
          "type": "address"
        },
        {
          "internalType": "uint32",
          "name": "_pinCode",
          "type": "uint32"
        }
      ],
      "name": "addVoter",
      "outputs": [],
      "payable": false,
      "stateMutability": "nonpayable",
      "type": "function"
    },
    {
      "constant": false,
      "inputs": [
        {
          "internalType": "uint16",
          "name": "_candidateId",
          "type": "uint16"
        }
      ],
      "name": "vote",
      "outputs": [],
      "payable": false,
      "stateMutability": "nonpayable",
      "type": "function"
    },
    {
      "constant": false,
      "inputs": [],
      "name": "computeResult",
      "outputs": [],
      "payable": false,
      "stateMutability": "nonpayable",
      "type": "function"
    }
  ],
  "bytecode": "0x60806040526001600060146101000a81548160ff021916908360ff160217905550336000806101000a81548173ffffffffffffffffffffffffffffffffffffffff021916908373ffffffffffffffffffffffffffffffffffffffff1602179055506000809054906101000a900473ffffffffffffffffffffffffffffffffffffffff1673ffffffffffffffffffffffffffffffffffffffff16600073ffffffffffffffffffffffffffffffffffffffff167f8be0079c531659141344cd1fd0a4f28419497f9722a3daafe3b4186f6b6457e060405160405180910390a3612340806100eb6000396000f3fe608060405234801561001057600080fd5b506004361061010b5760003560e01c80637cac9736116100a2578063a8311aa811610071578063a8311aa8146106a1578063b1c9fe6e146106bf578063c8b8745c146106e3578063ddb6e11614610737578063f2fde38b146107695761010b565b80637cac9736146105bc5780638da5cb5b146105c65780638f32d59b14610610578063a3ec138d146106325761010b565b80634e1121bc116100de5780634e1121bc1461026b5780636abd23171461034d57806370651a1814610490578063715018a6146105b25761010b565b806302a251a314610110578063045397e01461012e57806314972f09146102195780631ec6b60a14610261575b600080fd5b6101186107ad565b6040518082815260200191505060405180910390f35b6102176004803603608081101561014457600080fd5b810190808035906020019064010000000081111561016157600080fd5b82018360208201111561017357600080fd5b8035906020019184600183028401116401000000008311171561019557600080fd5b9091929391929390803590602001906401000000008111156101b657600080fd5b8201836020820111156101c857600080fd5b803590602001918460018302840111640100000000831117156101ea57600080fd5b9091929391929390803560010b9060200190929190803563ffffffff1690602001909291905050506107b3565b005b61024b6004803603602081101561022f57600080fd5b81019080803563ffffffff169060200190929190505050610dfa565b6040518082815260200191505060405180910390f35b610269610e26565b005b6103376004803603604081101561028157600080fd5b810190808035906020019064010000000081111561029e57600080fd5b8201836020820111156102b057600080fd5b803590602001918460018302840111640100000000831117156102d257600080fd5b9091929391929390803590602001906401000000008111156102f357600080fd5b82018360208201111561030557600080fd5b8035906020019184600183028401116401000000008311171561032757600080fd5b9091929391929390505050610ed6565b6040518082815260200191505060405180910390f35b6103896004803603604081101561036357600080fd5b81019080803563ffffffff16906020019092919080359060200190929190505050611111565b6040518080602001806020018560010b60010b81526020018463ffffffff1663ffffffff168152602001838103835287818151815260200191508051906020019080838360005b838110156103eb5780820151818401526020810190506103d0565b50505050905090810190601f1680156104185780820380516001836020036101000a031916815260200191505b50838103825286818151815260200191508051906020019080838360005b83811015610451578082015181840152602081019050610436565b50505050905090810190601f16801561047e5780820380516001836020036101000a031916815260200191505b50965050505050505060405180910390f35b6104bc600480360360208110156104a657600080fd5b81019080803590602001909291905050506112a8565b6040518080602001806020018461ffff1661ffff168152602001838103835286818151815260200191508051906020019080838360005b8381101561050e5780820151818401526020810190506104f3565b50505050905090810190601f16801561053b5780820380516001836020036101000a031916815260200191505b50838103825285818151815260200191508051906020019080838360005b83811015610574578082015181840152602081019050610559565b50505050905090810190601f1680156105a15780820380516001836020036101000a031916815260200191505b509550505050505060405180910390f35b6105ba61141d565b005b6105c46114ed565b005b6105ce611b61565b604051808273ffffffffffffffffffffffffffffffffffffffff1673ffffffffffffffffffffffffffffffffffffffff16815260200191505060405180910390f35b610618611b8a565b604051808215151515815260200191505060405180910390f35b6106746004803603602081101561064857600080fd5b81019080803573ffffffffffffffffffffffffffffffffffffffff169060200190929190505050611be1565b60405180831515151581526020018263ffffffff1663ffffffff1681526020019250505060405180910390f35b6106a9611c22565b6040518082815260200191505060405180910390f35b6106c7611c2f565b604051808260ff1660ff16815260200191505060405180910390f35b610735600480360360408110156106f957600080fd5b81019080803573ffffffffffffffffffffffffffffffffffffffff169060200190929190803563ffffffff169060200190929190505050611c42565b005b6107676004803603602081101561074d57600080fd5b81019080803561ffff169060200190929190505050611dc9565b005b6107ab6004803603602081101561077f57600080fd5b81019080803573ffffffffffffffffffffffffffffffffffffffff169060200190929190505050612102565b005b60055481565b6107bb611b8a565b6107c457600080fd5b6001600060149054906101000a900460ff1660ff161461084c576040517f08c379a000000000000000000000000000000000000000000000000000000000815260040180806020018281038252601a8152602001807f526567697374726174696f6e205068617365206973204f76657200000000000081525060200191505060405180910390fd5b60038054905060010b8260010b12801561088957507fffffffffffffffffffffffffffffffffffffffffffffffffffffffffffffffff8260010b12155b6108fb576040517f08c379a00000000000000000000000000000000000000000000000000000000081526004018080602001828103825260178152602001807f496e76616c696420506f6c69746963616c20506172747900000000000000000081525060200191505060405180910390fd5b6000600260008363ffffffff1663ffffffff16815260200190815260200160002080549050141561097857600481908060018154018082558091505090600182039060005260206000209060089182820401919006600402909192909190916101000a81548163ffffffff021916908363ffffffff160217905550505b7fffffffffffffffffffffffffffffffffffffffffffffffffffffffffffffffff8260010b14610c0757600260008263ffffffff1663ffffffff168152602001908152602001600020604051806080016040528088888080601f016020809104026020016040519081016040528093929190818152602001838380828437600081840152601f19601f82011690508083019250505050505050815260200160038561ffff1681548110610a2757fe5b90600052602060002090600302016001018054600181600116156101000203166002900480601f016020809104026020016040519081016040528092919081815260200182805460018160011615610100020316600290048015610acc5780601f10610aa157610100808354040283529160200191610acc565b820191906000526020600020905b815481529060010190602001808311610aaf57829003601f168201915b505050505081526020018460010b8152602001600063ffffffff16815250908060018154018082558091505090600182039060005260206000209060030201600090919290919091506000820151816000019080519060200190610b31929190612235565b506020820151816001019080519060200190610b4e929190612235565b5060408201518160020160006101000a81548161ffff021916908360010b61ffff16021790555060608201518160020160026101000a81548163ffffffff021916908363ffffffff1602179055505050507fe7bd3f30f664c931bdf34728d01db1970122a3c7c0ed1aacb93584f690b116f3868660405180806020018281038252848482818152602001925080828437600081840152601f19601f820116905080830192505050935050505060405180910390a1610df2565b600260008263ffffffff1663ffffffff168152602001908152602001600020604051806080016040528088888080601f016020809104026020016040519081016040528093929190818152602001838380828437600081840152601f19601f82011690508083019250505050505050815260200186868080601f016020809104026020016040519081016040528093929190818152602001838380828437600081840152601f19601f8201169050808301925050505050505081526020018460010b8152602001600063ffffffff16815250908060018154018082558091505090600182039060005260206000209060030201600090919290919091506000820151816000019080519060200190610d20929190612235565b506020820151816001019080519060200190610d3d929190612235565b5060408201518160020160006101000a81548161ffff021916908360010b61ffff16021790555060608201518160020160026101000a81548163ffffffff021916908363ffffffff1602179055505050507fe7bd3f30f664c931bdf34728d01db1970122a3c7c0ed1aacb93584f690b116f3868660405180806020018281038252848482818152602001925080828437600081840152601f19601f820116905080830192505050935050505060405180910390a15b505050505050565b6000600260008363ffffffff1663ffffffff168152602001908152602001600020805490509050919050565b610e2e611b8a565b610e3757600080fd5b6001600060149054906101000a900460ff1660ff1614610ebf576040517f08c379a000000000000000000000000000000000000000000000000000000000815260040180806020018281038252600d8152602001807f496e76616c69642050686173650000000000000000000000000000000000000081525060200191505060405180910390fd5b61012c4201600581905550610ed4600261211f565b565b6000610ee0611b8a565b610ee957600080fd5b6001600060149054906101000a900460ff1660ff1614610f71576040517f08c379a000000000000000000000000000000000000000000000000000000000815260040180806020018281038252601a8152602001807f526567697374726174696f6e205068617365206973204f76657200000000000081525060200191505060405180910390fd5b6003604051806060016040528087878080601f016020809104026020016040519081016040528093929190818152602001838380828437600081840152601f19601f82011690508083019250505050505050815260200185858080601f016020809104026020016040519081016040528093929190818152602001838380828437600081840152601f19601f820116905080830192505050505050508152602001600061ffff16815250908060018154018082558091505090600182039060005260206000209060030201600090919290919091506000820151816000019080519060200190611062929190612235565b50602082015181600101908051906020019061107f929190612235565b5060408201518160020160006101000a81548161ffff021916908361ffff1602179055505050507f81886254f7245ab46bb36841c3b94f17fb233eb99f6bc12e435ae0b6bce44506858560405180806020018281038252848482818152602001925080828437600081840152601f19601f820116905080830192505050935050505060405180910390a1949350505050565b6002602052816000526040600020818154811061112a57fe5b906000526020600020906003020160009150915050806000018054600181600116156101000203166002900480601f0160208091040260200160405190810160405280929190818152602001828054600181600116156101000203166002900480156111d75780601f106111ac576101008083540402835291602001916111d7565b820191906000526020600020905b8154815290600101906020018083116111ba57829003601f168201915b505050505090806001018054600181600116156101000203166002900480601f0160208091040260200160405190810160405280929190818152602001828054600181600116156101000203166002900480156112755780601f1061124a57610100808354040283529160200191611275565b820191906000526020600020905b81548152906001019060200180831161125857829003601f168201915b5050505050908060020160009054906101000a900460010b908060020160029054906101000a900463ffffffff16905084565b600381815481106112b557fe5b9060005260206000209060030201600091509050806000018054600181600116156101000203166002900480601f0160208091040260200160405190810160405280929190818152602001828054600181600116156101000203166002900480156113615780601f1061133657610100808354040283529160200191611361565b820191906000526020600020905b81548152906001019060200180831161134457829003601f168201915b505050505090806001018054600181600116156101000203166002900480601f0160208091040260200160405190810160405280929190818152602001828054600181600116156101000203166002900480156113ff5780601f106113d4576101008083540402835291602001916113ff565b820191906000526020600020905b8154815290600101906020018083116113e257829003601f168201915b5050505050908060020160009054906101000a900461ffff16905083565b611425611b8a565b61142e57600080fd5b600073ffffffffffffffffffffffffffffffffffffffff166000809054906101000a900473ffffffffffffffffffffffffffffffffffffffff1673ffffffffffffffffffffffffffffffffffffffff167f8be0079c531659141344cd1fd0a4f28419497f9722a3daafe3b4186f6b6457e060405160405180910390a360008060006101000a81548173ffffffffffffffffffffffffffffffffffffffff021916908373ffffffffffffffffffffffffffffffffffffffff160217905550565b6114f5611b8a565b6114fe57600080fd5b6002600060149054906101000a900460ff1660ff16148015611521575060055442115b611593576040517f08c379a000000000000000000000000000000000000000000000000000000000815260040180806020018281038252600d8152602001807f496e76616c69642050686173650000000000000000000000000000000000000081525060200191505060405180910390fd5b6002600060149054906101000a900460ff1660ff161461161b576040517f08c379a000000000000000000000000000000000000000000000000000000000815260040180806020018281038252600d8152602001807f496e76616c69642050686173650000000000000000000000000000000000000081525060200191505060405180910390fd5b60008090505b6004805490508161ffff161015611b5457600060048261ffff168154811061164557fe5b90600052602060002090600891828204019190066004029054906101000a900463ffffffff1690506116756122b5565b600260008363ffffffff1663ffffffff1681526020019081526020016000206000815481106116a057fe5b9060005260206000209060030201604051806080016040529081600082018054600181600116156101000203166002900480601f0160208091040260200160405190810160405280929190818152602001828054600181600116156101000203166002900480156117525780601f1061172757610100808354040283529160200191611752565b820191906000526020600020905b81548152906001019060200180831161173557829003601f168201915b50505050508152602001600182018054600181600116156101000203166002900480601f0160208091040260200160405190810160405280929190818152602001828054600181600116156101000203166002900480156117f45780601f106117c9576101008083540402835291602001916117f4565b820191906000526020600020905b8154815290600101906020018083116117d757829003601f168201915b505050505081526020016002820160009054906101000a900460010b60010b60010b81526020016002820160029054906101000a900463ffffffff1663ffffffff1663ffffffff168152505090506000600190505b600260008463ffffffff1663ffffffff168152602001908152602001600020805490508161ffff161015611abc57600260008463ffffffff1663ffffffff1681526020019081526020016000208161ffff16815481106118a557fe5b906000526020600020906003020160020160029054906101000a900463ffffffff1663ffffffff16826060015163ffffffff161015611aaf57600260008463ffffffff1663ffffffff1681526020019081526020016000208161ffff168154811061190c57fe5b9060005260206000209060030201604051806080016040529081600082018054600181600116156101000203166002900480601f0160208091040260200160405190810160405280929190818152602001828054600181600116156101000203166002900480156119be5780601f10611993576101008083540402835291602001916119be565b820191906000526020600020905b8154815290600101906020018083116119a157829003601f168201915b50505050508152602001600182018054600181600116156101000203166002900480601f016020809104026020016040519081016040528092919081815260200182805460018160011615610100020316600290048015611a605780601f10611a3557610100808354040283529160200191611a60565b820191906000526020600020905b815481529060010190602001808311611a4357829003601f168201915b505050505081526020016002820160009054906101000a900460010b60010b60010b81526020016002820160029054906101000a900463ffffffff1663ffffffff1663ffffffff168152505091505b8080600101915050611849565b507fffffffffffffffffffffffffffffffffffffffffffffffffffffffffffffffff816040015160010b14611b45576003816040015161ffff1681548110611b0057fe5b9060005260206000209060030201600201600081819054906101000a900461ffff168092919060010191906101000a81548161ffff021916908361ffff160217905550505b50508080600101915050611621565b50611b5f600361211f565b565b60008060009054906101000a900473ffffffffffffffffffffffffffffffffffffffff16905090565b60008060009054906101000a900473ffffffffffffffffffffffffffffffffffffffff1673ffffffffffffffffffffffffffffffffffffffff163373ffffffffffffffffffffffffffffffffffffffff1614905090565b60016020528060005260406000206000915090508060000160009054906101000a900460ff16908060000160019054906101000a900463ffffffff16905082565b6000600380549050905090565b600060149054906101000a900460ff1681565b611c4a611b8a565b611c5357600080fd5b6001600060149054906101000a900460ff1660ff1614611cdb576040517f08c379a000000000000000000000000000000000000000000000000000000000815260040180806020018281038252601a8152602001807f526567697374726174696f6e205068617365206973204f76657200000000000081525060200191505060405180910390fd5b60405180604001604052806001151581526020018263ffffffff16815250600160008473ffffffffffffffffffffffffffffffffffffffff1673ffffffffffffffffffffffffffffffffffffffff16815260200190815260200160002060008201518160000160006101000a81548160ff02191690831515021790555060208201518160000160016101000a81548163ffffffff021916908363ffffffff1602179055509050508173ffffffffffffffffffffffffffffffffffffffff167fa636f4a11e2d3ba7f89d042ecb0a6b886716e98cd49d8fd876ee0f73bced42b860405160405180910390a25050565b6002600060149054906101000a900460ff1660ff16148015611dec575060055442105b611e5e576040517f08c379a000000000000000000000000000000000000000000000000000000000815260040180806020018281038252600d8152602001807f496e76616c69642050686173650000000000000000000000000000000000000081525060200191505060405180910390fd5b6000600160003373ffffffffffffffffffffffffffffffffffffffff1673ffffffffffffffffffffffffffffffffffffffff168152602001908152602001600020905060008160000160019054906101000a900463ffffffff1663ffffffff1611611f31576040517f08c379a00000000000000000000000000000000000000000000000000000000081526004018080602001828103825260178152602001807f566f746572206973206e6f74205265676973746572656400000000000000000081525060200191505060405180910390fd5b8060000160009054906101000a900460ff16611fb5576040517f08c379a00000000000000000000000000000000000000000000000000000000081526004018080602001828103825260178152602001807f566f7465722068617320616c726561647920566f74656400000000000000000081525060200191505060405180910390fd5b60008261ffff16101580156120035750600260008260000160019054906101000a900463ffffffff1663ffffffff1663ffffffff168152602001908152602001600020805490508261ffff16105b61200c57600080fd5b6000600260008360000160019054906101000a900463ffffffff1663ffffffff1663ffffffff1681526020019081526020016000208361ffff168154811061205057fe5b9060005260206000209060030201905080600201600281819054906101000a900463ffffffff168092919060010191906101000a81548163ffffffff021916908363ffffffff1602179055505060008260000160006101000a81548160ff0219169083151502179055503373ffffffffffffffffffffffffffffffffffffffff167ff5b08346e1e6b0b55d07ce94e81fcb198d47fbbecfea3b9a476f454c86761ec460405160405180910390a2505050565b61210a611b8a565b61211357600080fd5b61211c8161213d565b50565b80600060146101000a81548160ff021916908360ff16021790555050565b600073ffffffffffffffffffffffffffffffffffffffff168173ffffffffffffffffffffffffffffffffffffffff16141561217757600080fd5b8073ffffffffffffffffffffffffffffffffffffffff166000809054906101000a900473ffffffffffffffffffffffffffffffffffffffff1673ffffffffffffffffffffffffffffffffffffffff167f8be0079c531659141344cd1fd0a4f28419497f9722a3daafe3b4186f6b6457e060405160405180910390a3806000806101000a81548173ffffffffffffffffffffffffffffffffffffffff021916908373ffffffffffffffffffffffffffffffffffffffff16021790555050565b828054600181600116156101000203166002900490600052602060002090601f016020900481019282601f1061227657805160ff19168380011785556122a4565b828001600101855582156122a4579182015b828111156122a3578251825591602001919060010190612288565b5b5090506122b191906122e6565b5090565b60405180608001604052806060815260200160608152602001600060010b8152602001600063ffffffff1681525090565b61230891905b808211156123045760008160009055506001016122ec565b5090565b9056fea265627a7a72315820f4b5ef08236fb22bc0f6f7e0f4638e15a4e166bec9ae603acc58e106acb6c23b64736f6c63430005100032",
  "source": "// SPDX-License-Identifier: MIT\npragma solidity >=0.4.21 <0.7.0;\n\nimport \"./Ownable.sol\";\n\ncontract Election is Ownable{\n    \n    struct PoliticalParty {\n        string name;\n        string logoLink;\n        uint16 seats;\n    }\n    \n    struct Candidate {\n        string name;\n        string logoLink;\n        int16 partyId; // -1 for individual candidates\n        uint32 votes;\n    }\n    \n    struct Voter {\n        bool canVote;\n        uint32 pinCode;\n    }\n    \n    uint8 public phase = 1; // 1 for registration, 2 for voting, 3 for result declared\n    mapping (address => Voter) public voters;\n    mapping (uint32 => Candidate[]) public districtToCandidates;\n    PoliticalParty[] public parties;\n    uint32[] pinCodes;\n    uint public votingPeriod;\n    \n    // event PoliticalPartyCreated(string _name, string _logoLink);\n    event PoliticalPartyCreated(string _name);\n    // event CandidateCreated(string _name, string _logoLink, int16 _partyId, uint32 _pinCode);\n    event CandidateCreated(string _name);\n    event VoterAdded(address indexed _id);\n    event Vote(address indexed _id);\n\n    modifier beforeEndTime() {\n        require(phase == 2 && block.timestamp < votingPeriod, \"Invalid Phase\");\n        _;\n    }\n\n    modifier afterEndTime() {\n        require(phase == 2 && block.timestamp > votingPeriod, \"Invalid Phase\");\n        _;\n    }\n\n    function getParties() public view returns (uint) {\n        return parties.length;\n    }\n\n    function getCandidateCount(uint32 district) public view returns (uint) {\n        return districtToCandidates[district].length;\n    }\n\n    function changePhase(uint8 _phase) private {\n        phase = _phase;\n    }\n    \n    function startVoting() external onlyOwner {\n        require(phase == 1, \"Invalid Phase\");\n        votingPeriod = block.timestamp + 5 minutes;\n        changePhase(2);\n    }\n\n    function createPoliticalParty(string calldata _name, string calldata _logoLink) external onlyOwner returns(uint) {\n        require(phase == 1, \"Registration Phase is Over\");\n        parties.push(PoliticalParty(_name, _logoLink, 0));\n        emit PoliticalPartyCreated(_name);\n    }\n    \n    function addCandidate(string calldata _name, string calldata _logoLink, int16 _partyId, uint32 _pinCode) external onlyOwner {\n        require(phase == 1, \"Registration Phase is Over\");\n        require(_partyId < int16(parties.length) && _partyId >= -1, \"Invalid Political Party\");\n        if(districtToCandidates[_pinCode].length == 0){\n            pinCodes.push(_pinCode);\n        }\n        if(_partyId != -1){\n            districtToCandidates[_pinCode].push(Candidate(_name, parties[uint16(_partyId)].logoLink, _partyId, 0));\n            emit CandidateCreated(_name);\n        }\n        else{\n            districtToCandidates[_pinCode].push(Candidate(_name, _logoLink, _partyId, 0));\n            emit CandidateCreated(_name);\n        }\n    }\n    \n    function addVoter(address _voterAccount ,uint32  _pinCode) external onlyOwner {\n        require(phase == 1,\"Registration Phase is Over\");\n        voters[_voterAccount] = Voter(true, _pinCode);\n        emit VoterAdded(_voterAccount);\n    }\n    \n    function vote(uint16 _candidateId) external beforeEndTime{\n        Voter storage myVoter = voters[msg.sender];\n        require(myVoter.pinCode > 0, \"Voter is not Registered\");\n        require(myVoter.canVote, \"Voter has already Voted\");\n        require(_candidateId >= 0 && _candidateId < districtToCandidates[myVoter.pinCode].length);\n        Candidate storage myCandidate = districtToCandidates[myVoter.pinCode][_candidateId];\n        myCandidate.votes++;\n        myVoter.canVote = false;\n        emit Vote(msg.sender);\n    }\n    \n    function computeResult() external onlyOwner afterEndTime{\n        require(phase == 2, \"Invalid Phase\");\n        for(uint16 i=0 ; i<pinCodes.length ; i++){\n            uint32 currPinCode = pinCodes[i];\n            Candidate memory winner = districtToCandidates[currPinCode][0];\n            for(uint16 j = 1; j<districtToCandidates[currPinCode].length; j++){\n                if(winner.votes < districtToCandidates[currPinCode][j].votes){\n                    winner = districtToCandidates[currPinCode][j];\n                }\n            }\n            if(winner.partyId!=-1){\n                parties[uint16(winner.partyId)].seats++;\n            }\n        }\n        changePhase(3);\n    }\n}",
  "sourcePath": "/home/abhishek/Documents/Projects/react-projects/ElectionDapp/contracts/Election.sol",
  "compiler": {
    "name": "solc",
    "version": "0.5.16+commit.9c3226ce.Emscripten.clang"
  },
  "schemaVersion": "3.4.3",
  "updatedAt": "2021-11-10T06:57:46.318Z",
  "networkType": "ethereum",
  "devdoc": {
    "methods": {
      "isOwner()": {
        "return": "true if `msg.sender` is the owner of the contract."
      },
      "owner()": {
        "return": "the address of the owner."
      },
      "renounceOwnership()": {
        "details": "Allows the current owner to relinquish control of the contract."
      },
      "transferOwnership(address)": {
        "details": "Allows the current owner to transfer control of the contract to a newOwner.",
        "params": {
          "newOwner": "The address to transfer ownership to."
        }
      }
    }
  },
  "userdoc": {
    "methods": {
      "renounceOwnership()": {
        "notice": "Renouncing to ownership will leave the contract without an owner. It will not be possible to call the functions with the `onlyOwner` modifier anymore."
      }
    }
  }
}