{
  "contractName": "Election",
  "abi": [
    {
      "anonymous": false,
      "inputs": [
        {
          "indexed": false,
          "internalType": "string",
          "name": "_name",
          "type": "string"
        },
        {
          "indexed": false,
          "internalType": "string",
          "name": "_logoLink",
          "type": "string"
        },
        {
          "indexed": false,
          "internalType": "int16",
          "name": "_partyId",
          "type": "int16"
        },
        {
          "indexed": false,
          "internalType": "uint32",
          "name": "_pinCode",
          "type": "uint32"
        }
      ],
      "name": "CandidateCreated",
      "type": "event"
    },
    {
      "anonymous": false,
      "inputs": [
        {
          "indexed": true,
          "internalType": "address",
          "name": "previousOwner",
          "type": "address"
        },
        {
          "indexed": true,
          "internalType": "address",
          "name": "newOwner",
          "type": "address"
        }
      ],
      "name": "OwnershipTransferred",
      "type": "event"
    },
    {
      "anonymous": false,
      "inputs": [
        {
          "indexed": false,
          "internalType": "string",
          "name": "_name",
          "type": "string"
        },
        {
          "indexed": false,
          "internalType": "string",
          "name": "_logoLink",
          "type": "string"
        }
      ],
      "name": "PoliticalPartyCreated",
      "type": "event"
    },
    {
      "anonymous": false,
      "inputs": [
        {
          "indexed": false,
          "internalType": "address",
          "name": "_id",
          "type": "address"
        }
      ],
      "name": "Vote",
      "type": "event"
    },
    {
      "anonymous": false,
      "inputs": [
        {
          "indexed": false,
          "internalType": "address",
          "name": "_id",
          "type": "address"
        }
      ],
      "name": "VoterAdded",
      "type": "event"
    },
    {
      "constant": true,
      "inputs": [
        {
          "internalType": "uint32",
          "name": "",
          "type": "uint32"
        },
        {
          "internalType": "uint256",
          "name": "",
          "type": "uint256"
        }
      ],
      "name": "districtToCandidates",
      "outputs": [
        {
          "internalType": "string",
          "name": "name",
          "type": "string"
        },
        {
          "internalType": "string",
          "name": "logoLink",
          "type": "string"
        },
        {
          "internalType": "int16",
          "name": "partyId",
          "type": "int16"
        },
        {
          "internalType": "uint32",
          "name": "votes",
          "type": "uint32"
        }
      ],
      "payable": false,
      "stateMutability": "view",
      "type": "function"
    },
    {
      "constant": true,
      "inputs": [],
      "name": "isOwner",
      "outputs": [
        {
          "internalType": "bool",
          "name": "",
          "type": "bool"
        }
      ],
      "payable": false,
      "stateMutability": "view",
      "type": "function"
    },
    {
      "constant": true,
      "inputs": [],
      "name": "owner",
      "outputs": [
        {
          "internalType": "address",
          "name": "",
          "type": "address"
        }
      ],
      "payable": false,
      "stateMutability": "view",
      "type": "function"
    },
    {
      "constant": true,
      "inputs": [
        {
          "internalType": "uint256",
          "name": "",
          "type": "uint256"
        }
      ],
      "name": "parties",
      "outputs": [
        {
          "internalType": "string",
          "name": "name",
          "type": "string"
        },
        {
          "internalType": "string",
          "name": "logoLink",
          "type": "string"
        },
        {
          "internalType": "uint16",
          "name": "seats",
          "type": "uint16"
        }
      ],
      "payable": false,
      "stateMutability": "view",
      "type": "function"
    },
    {
      "constant": true,
      "inputs": [],
      "name": "phase",
      "outputs": [
        {
          "internalType": "uint8",
          "name": "",
          "type": "uint8"
        }
      ],
      "payable": false,
      "stateMutability": "view",
      "type": "function"
    },
    {
      "constant": false,
      "inputs": [],
      "name": "renounceOwnership",
      "outputs": [],
      "payable": false,
      "stateMutability": "nonpayable",
      "type": "function"
    },
    {
      "constant": false,
      "inputs": [
        {
          "internalType": "address",
          "name": "newOwner",
          "type": "address"
        }
      ],
      "name": "transferOwnership",
      "outputs": [],
      "payable": false,
      "stateMutability": "nonpayable",
      "type": "function"
    },
    {
      "constant": true,
      "inputs": [],
      "name": "votingPeriod",
      "outputs": [
        {
          "internalType": "uint256",
          "name": "",
          "type": "uint256"
        }
      ],
      "payable": false,
      "stateMutability": "view",
      "type": "function"
    },
    {
      "constant": false,
      "inputs": [],
      "name": "startVoting",
      "outputs": [],
      "payable": false,
      "stateMutability": "nonpayable",
      "type": "function"
    },
    {
      "constant": false,
      "inputs": [
        {
          "internalType": "string",
          "name": "_name",
          "type": "string"
        },
        {
          "internalType": "string",
          "name": "_logoLink",
          "type": "string"
        }
      ],
      "name": "createPoliticalParty",
      "outputs": [
        {
          "internalType": "uint256",
          "name": "",
          "type": "uint256"
        }
      ],
      "payable": false,
      "stateMutability": "nonpayable",
      "type": "function"
    },
    {
      "constant": false,
      "inputs": [
        {
          "internalType": "string",
          "name": "_name",
          "type": "string"
        },
        {
          "internalType": "string",
          "name": "_logoLink",
          "type": "string"
        },
        {
          "internalType": "int16",
          "name": "_partyId",
          "type": "int16"
        },
        {
          "internalType": "uint32",
          "name": "_pinCode",
          "type": "uint32"
        }
      ],
      "name": "addCandidate",
      "outputs": [],
      "payable": false,
      "stateMutability": "nonpayable",
      "type": "function"
    },
    {
      "constant": false,
      "inputs": [
        {
          "internalType": "address",
          "name": "_voterAccount",
          "type": "address"
        },
        {
          "internalType": "uint32",
          "name": "_pinCode",
          "type": "uint32"
        }
      ],
      "name": "addVoter",
      "outputs": [],
      "payable": false,
      "stateMutability": "nonpayable",
      "type": "function"
    },
    {
      "constant": false,
      "inputs": [
        {
          "internalType": "uint16",
          "name": "_candidateId",
          "type": "uint16"
        }
      ],
      "name": "vote",
      "outputs": [],
      "payable": false,
      "stateMutability": "nonpayable",
      "type": "function"
    },
    {
      "constant": false,
      "inputs": [],
      "name": "computeResult",
      "outputs": [],
      "payable": false,
      "stateMutability": "nonpayable",
      "type": "function"
    }
  ],
  "bytecode": "0x60806040526001600060146101000a81548160ff021916908360ff160217905550336000806101000a81548173ffffffffffffffffffffffffffffffffffffffff021916908373ffffffffffffffffffffffffffffffffffffffff1602179055506000809054906101000a900473ffffffffffffffffffffffffffffffffffffffff1673ffffffffffffffffffffffffffffffffffffffff16600073ffffffffffffffffffffffffffffffffffffffff167f8be0079c531659141344cd1fd0a4f28419497f9722a3daafe3b4186f6b6457e060405160405180910390a361200b806100eb6000396000f3fe608060405234801561001057600080fd5b50600436106100ea5760003560e01c80637cac97361161008c578063b1c9fe6e11610066578063b1c9fe6e146105c9578063c8b8745c146105ed578063ddb6e11614610641578063f2fde38b14610673576100ea565b80637cac9736146105535780638da5cb5b1461055d5780638f32d59b146105a7576100ea565b80634e1121bc116100c85780634e1121bc146102025780636abd2317146102e457806370651a1814610427578063715018a614610549576100ea565b806302a251a3146100ef578063045397e01461010d5780631ec6b60a146101f8575b600080fd5b6100f76106b7565b6040518082815260200191505060405180910390f35b6101f66004803603608081101561012357600080fd5b810190808035906020019064010000000081111561014057600080fd5b82018360208201111561015257600080fd5b8035906020019184600183028401116401000000008311171561017457600080fd5b90919293919293908035906020019064010000000081111561019557600080fd5b8201836020820111156101a757600080fd5b803590602001918460018302840111640100000000831117156101c957600080fd5b9091929391929390803560010b9060200190929190803563ffffffff1690602001909291905050506106bd565b005b610200610aca565b005b6102ce6004803603604081101561021857600080fd5b810190808035906020019064010000000081111561023557600080fd5b82018360208201111561024757600080fd5b8035906020019184600183028401116401000000008311171561026957600080fd5b90919293919293908035906020019064010000000081111561028a57600080fd5b82018360208201111561029c57600080fd5b803590602001918460018302840111640100000000831117156102be57600080fd5b9091929391929390505050610b7b565b6040518082815260200191505060405180910390f35b610320600480360360408110156102fa57600080fd5b81019080803563ffffffff16906020019092919080359060200190929190505050610dea565b6040518080602001806020018560010b60010b81526020018463ffffffff1663ffffffff168152602001838103835287818151815260200191508051906020019080838360005b83811015610382578082015181840152602081019050610367565b50505050905090810190601f1680156103af5780820380516001836020036101000a031916815260200191505b50838103825286818151815260200191508051906020019080838360005b838110156103e85780820151818401526020810190506103cd565b50505050905090810190601f1680156104155780820380516001836020036101000a031916815260200191505b50965050505050505060405180910390f35b6104536004803603602081101561043d57600080fd5b8101908080359060200190929190505050610f81565b6040518080602001806020018461ffff1661ffff168152602001838103835286818151815260200191508051906020019080838360005b838110156104a557808201518184015260208101905061048a565b50505050905090810190601f1680156104d25780820380516001836020036101000a031916815260200191505b50838103825285818151815260200191508051906020019080838360005b8381101561050b5780820151818401526020810190506104f0565b50505050905090810190601f1680156105385780820380516001836020036101000a031916815260200191505b509550505050505060405180910390f35b6105516110f6565b005b61055b6111c6565b005b61056561183a565b604051808273ffffffffffffffffffffffffffffffffffffffff1673ffffffffffffffffffffffffffffffffffffffff16815260200191505060405180910390f35b6105af611863565b604051808215151515815260200191505060405180910390f35b6105d16118ba565b604051808260ff1660ff16815260200191505060405180910390f35b61063f6004803603604081101561060357600080fd5b81019080803573ffffffffffffffffffffffffffffffffffffffff169060200190929190803563ffffffff1690602001909291905050506118cd565b005b6106716004803603602081101561065757600080fd5b81019080803561ffff169060200190929190505050611a74565b005b6106b56004803603602081101561068957600080fd5b81019080803573ffffffffffffffffffffffffffffffffffffffff169060200190929190505050611dcd565b005b60055481565b6106c5611863565b6106ce57600080fd5b6001600060149054906101000a900460ff1660ff1614610756576040517f08c379a000000000000000000000000000000000000000000000000000000000815260040180806020018281038252601a8152602001807f526567697374726174696f6e205068617365206973204f76657200000000000081525060200191505060405180910390fd5b60038054905060010b8260010b12801561079357507fffffffffffffffffffffffffffffffffffffffffffffffffffffffffffffffff8260010b12155b610805576040517f08c379a00000000000000000000000000000000000000000000000000000000081526004018080602001828103825260178152602001807f496e76616c696420506f6c69746963616c20506172747900000000000000000081525060200191505060405180910390fd5b6000600260008363ffffffff1663ffffffff16815260200190815260200160002080549050141561088257600481908060018154018082558091505090600182039060005260206000209060089182820401919006600402909192909190916101000a81548163ffffffff021916908363ffffffff160217905550505b600260008263ffffffff1663ffffffff168152602001908152602001600020604051806080016040528088888080601f016020809104026020016040519081016040528093929190818152602001838380828437600081840152601f19601f82011690508083019250505050505050815260200186868080601f016020809104026020016040519081016040528093929190818152602001838380828437600081840152601f19601f8201169050808301925050505050505081526020018460010b8152602001600063ffffffff1681525090806001815401808255809150509060018203906000526020600020906003020160009091929091909150600082015181600001908051906020019061099b929190611f00565b5060208201518160010190805190602001906109b8929190611f00565b5060408201518160020160006101000a81548161ffff021916908360010b61ffff16021790555060608201518160020160026101000a81548163ffffffff021916908363ffffffff1602179055505050507f67cc0f353f5f34a1c4a33aaa051130d0ec8a071c57e4cd5e55cfe7f1e7c05a438686868686866040518080602001806020018560010b60010b81526020018463ffffffff1663ffffffff1681526020018381038352898982818152602001925080828437600081840152601f19601f8201169050808301925050508381038252878782818152602001925080828437600081840152601f19601f8201169050808301925050509850505050505050505060405180910390a1505050505050565b610ad2611863565b610adb57600080fd5b6001600060149054906101000a900460ff1660ff1614610b63576040517f08c379a000000000000000000000000000000000000000000000000000000000815260040180806020018281038252600d8152602001807f496e76616c69642050686173650000000000000000000000000000000000000081525060200191505060405180910390fd5b620151804201600581905550610b796002611dea565b565b6000610b85611863565b610b8e57600080fd5b6001600060149054906101000a900460ff1660ff1614610c16576040517f08c379a000000000000000000000000000000000000000000000000000000000815260040180806020018281038252601a8152602001807f526567697374726174696f6e205068617365206973204f76657200000000000081525060200191505060405180910390fd5b6003604051806060016040528087878080601f016020809104026020016040519081016040528093929190818152602001838380828437600081840152601f19601f82011690508083019250505050505050815260200185858080601f016020809104026020016040519081016040528093929190818152602001838380828437600081840152601f19601f820116905080830192505050505050508152602001600061ffff16815250908060018154018082558091505090600182039060005260206000209060030201600090919290919091506000820151816000019080519060200190610d07929190611f00565b506020820151816001019080519060200190610d24929190611f00565b5060408201518160020160006101000a81548161ffff021916908361ffff1602179055505050507f9f4aaeb6bdce85d10c4ff95b54005e03164d9e84acc990fc01a44381cb9d9294858585856040518080602001806020018381038352878782818152602001925080828437600081840152601f19601f8201169050808301925050508381038252858582818152602001925080828437600081840152601f19601f820116905080830192505050965050505050505060405180910390a1949350505050565b60026020528160005260406000208181548110610e0357fe5b906000526020600020906003020160009150915050806000018054600181600116156101000203166002900480601f016020809104026020016040519081016040528092919081815260200182805460018160011615610100020316600290048015610eb05780601f10610e8557610100808354040283529160200191610eb0565b820191906000526020600020905b815481529060010190602001808311610e9357829003601f168201915b505050505090806001018054600181600116156101000203166002900480601f016020809104026020016040519081016040528092919081815260200182805460018160011615610100020316600290048015610f4e5780601f10610f2357610100808354040283529160200191610f4e565b820191906000526020600020905b815481529060010190602001808311610f3157829003601f168201915b5050505050908060020160009054906101000a900460010b908060020160029054906101000a900463ffffffff16905084565b60038181548110610f8e57fe5b9060005260206000209060030201600091509050806000018054600181600116156101000203166002900480601f01602080910402602001604051908101604052809291908181526020018280546001816001161561010002031660029004801561103a5780601f1061100f5761010080835404028352916020019161103a565b820191906000526020600020905b81548152906001019060200180831161101d57829003601f168201915b505050505090806001018054600181600116156101000203166002900480601f0160208091040260200160405190810160405280929190818152602001828054600181600116156101000203166002900480156110d85780601f106110ad576101008083540402835291602001916110d8565b820191906000526020600020905b8154815290600101906020018083116110bb57829003601f168201915b5050505050908060020160009054906101000a900461ffff16905083565b6110fe611863565b61110757600080fd5b600073ffffffffffffffffffffffffffffffffffffffff166000809054906101000a900473ffffffffffffffffffffffffffffffffffffffff1673ffffffffffffffffffffffffffffffffffffffff167f8be0079c531659141344cd1fd0a4f28419497f9722a3daafe3b4186f6b6457e060405160405180910390a360008060006101000a81548173ffffffffffffffffffffffffffffffffffffffff021916908373ffffffffffffffffffffffffffffffffffffffff160217905550565b6111ce611863565b6111d757600080fd5b6002600060149054906101000a900460ff1660ff161480156111fa575060055442115b61126c576040517f08c379a000000000000000000000000000000000000000000000000000000000815260040180806020018281038252600d8152602001807f496e76616c69642050686173650000000000000000000000000000000000000081525060200191505060405180910390fd5b6002600060149054906101000a900460ff1660ff16146112f4576040517f08c379a000000000000000000000000000000000000000000000000000000000815260040180806020018281038252600d8152602001807f496e76616c69642050686173650000000000000000000000000000000000000081525060200191505060405180910390fd5b60008090505b6004805490508161ffff16101561182d57600060048261ffff168154811061131e57fe5b90600052602060002090600891828204019190066004029054906101000a900463ffffffff16905061134e611f80565b600260008363ffffffff1663ffffffff16815260200190815260200160002060008154811061137957fe5b9060005260206000209060030201604051806080016040529081600082018054600181600116156101000203166002900480601f01602080910402602001604051908101604052809291908181526020018280546001816001161561010002031660029004801561142b5780601f106114005761010080835404028352916020019161142b565b820191906000526020600020905b81548152906001019060200180831161140e57829003601f168201915b50505050508152602001600182018054600181600116156101000203166002900480601f0160208091040260200160405190810160405280929190818152602001828054600181600116156101000203166002900480156114cd5780601f106114a2576101008083540402835291602001916114cd565b820191906000526020600020905b8154815290600101906020018083116114b057829003601f168201915b505050505081526020016002820160009054906101000a900460010b60010b60010b81526020016002820160029054906101000a900463ffffffff1663ffffffff1663ffffffff168152505090506000600190505b600260008463ffffffff1663ffffffff168152602001908152602001600020805490508161ffff16101561179557600260008463ffffffff1663ffffffff1681526020019081526020016000208161ffff168154811061157e57fe5b906000526020600020906003020160020160029054906101000a900463ffffffff1663ffffffff16826060015163ffffffff16101561178857600260008463ffffffff1663ffffffff1681526020019081526020016000208161ffff16815481106115e557fe5b9060005260206000209060030201604051806080016040529081600082018054600181600116156101000203166002900480601f0160208091040260200160405190810160405280929190818152602001828054600181600116156101000203166002900480156116975780601f1061166c57610100808354040283529160200191611697565b820191906000526020600020905b81548152906001019060200180831161167a57829003601f168201915b50505050508152602001600182018054600181600116156101000203166002900480601f0160208091040260200160405190810160405280929190818152602001828054600181600116156101000203166002900480156117395780601f1061170e57610100808354040283529160200191611739565b820191906000526020600020905b81548152906001019060200180831161171c57829003601f168201915b505050505081526020016002820160009054906101000a900460010b60010b60010b81526020016002820160029054906101000a900463ffffffff1663ffffffff1663ffffffff168152505091505b8080600101915050611522565b507fffffffffffffffffffffffffffffffffffffffffffffffffffffffffffffffff816040015160010b1461181e576003816040015161ffff16815481106117d957fe5b9060005260206000209060030201600201600081819054906101000a900461ffff168092919060010191906101000a81548161ffff021916908361ffff160217905550505b505080806001019150506112fa565b506118386003611dea565b565b60008060009054906101000a900473ffffffffffffffffffffffffffffffffffffffff16905090565b60008060009054906101000a900473ffffffffffffffffffffffffffffffffffffffff1673ffffffffffffffffffffffffffffffffffffffff163373ffffffffffffffffffffffffffffffffffffffff1614905090565b600060149054906101000a900460ff1681565b6118d5611863565b6118de57600080fd5b6001600060149054906101000a900460ff1660ff1614611966576040517f08c379a000000000000000000000000000000000000000000000000000000000815260040180806020018281038252601a8152602001807f526567697374726174696f6e205068617365206973204f76657200000000000081525060200191505060405180910390fd5b60405180604001604052806001151581526020018263ffffffff16815250600160008473ffffffffffffffffffffffffffffffffffffffff1673ffffffffffffffffffffffffffffffffffffffff16815260200190815260200160002060008201518160000160006101000a81548160ff02191690831515021790555060208201518160000160016101000a81548163ffffffff021916908363ffffffff1602179055509050507fa636f4a11e2d3ba7f89d042ecb0a6b886716e98cd49d8fd876ee0f73bced42b882604051808273ffffffffffffffffffffffffffffffffffffffff1673ffffffffffffffffffffffffffffffffffffffff16815260200191505060405180910390a15050565b6002600060149054906101000a900460ff1660ff16148015611a97575060055442105b611b09576040517f08c379a000000000000000000000000000000000000000000000000000000000815260040180806020018281038252600d8152602001807f496e76616c69642050686173650000000000000000000000000000000000000081525060200191505060405180910390fd5b6000600160003373ffffffffffffffffffffffffffffffffffffffff1673ffffffffffffffffffffffffffffffffffffffff168152602001908152602001600020905060008160000160019054906101000a900463ffffffff1663ffffffff1611611bdc576040517f08c379a00000000000000000000000000000000000000000000000000000000081526004018080602001828103825260178152602001807f566f746572206973206e6f74205265676973746572656400000000000000000081525060200191505060405180910390fd5b8060000160009054906101000a900460ff16611c60576040517f08c379a00000000000000000000000000000000000000000000000000000000081526004018080602001828103825260178152602001807f566f7465722068617320616c726561647920566f74656400000000000000000081525060200191505060405180910390fd5b60008261ffff1610158015611cae5750600260008260000160019054906101000a900463ffffffff1663ffffffff1663ffffffff168152602001908152602001600020805490508261ffff16105b611cb757600080fd5b6000600260008360000160019054906101000a900463ffffffff1663ffffffff1663ffffffff1681526020019081526020016000208361ffff1681548110611cfb57fe5b9060005260206000209060030201905080600201600281819054906101000a900463ffffffff168092919060010191906101000a81548163ffffffff021916908363ffffffff1602179055505060008260000160006101000a81548160ff0219169083151502179055507ff5b08346e1e6b0b55d07ce94e81fcb198d47fbbecfea3b9a476f454c86761ec433604051808273ffffffffffffffffffffffffffffffffffffffff1673ffffffffffffffffffffffffffffffffffffffff16815260200191505060405180910390a1505050565b611dd5611863565b611dde57600080fd5b611de781611e08565b50565b80600060146101000a81548160ff021916908360ff16021790555050565b600073ffffffffffffffffffffffffffffffffffffffff168173ffffffffffffffffffffffffffffffffffffffff161415611e4257600080fd5b8073ffffffffffffffffffffffffffffffffffffffff166000809054906101000a900473ffffffffffffffffffffffffffffffffffffffff1673ffffffffffffffffffffffffffffffffffffffff167f8be0079c531659141344cd1fd0a4f28419497f9722a3daafe3b4186f6b6457e060405160405180910390a3806000806101000a81548173ffffffffffffffffffffffffffffffffffffffff021916908373ffffffffffffffffffffffffffffffffffffffff16021790555050565b828054600181600116156101000203166002900490600052602060002090601f016020900481019282601f10611f4157805160ff1916838001178555611f6f565b82800160010185558215611f6f579182015b82811115611f6e578251825591602001919060010190611f53565b5b509050611f7c9190611fb1565b5090565b60405180608001604052806060815260200160608152602001600060010b8152602001600063ffffffff1681525090565b611fd391905b80821115611fcf576000816000905550600101611fb7565b5090565b9056fea265627a7a723158207a5d2cfeb69fff2f6fee12dde1c2c8a36cafd08d669ac28a406e5f50f1347d4c64736f6c63430005100032",
  "source": "// SPDX-License-Identifier: MIT\npragma solidity >=0.4.21 <0.7.0;\n\nimport \"./Ownable.sol\";\n\ncontract Election is Ownable{\n    \n    struct PoliticalParty {\n        string name;\n        string logoLink;\n        uint16 seats;\n    }\n    \n    struct Candidate {\n        string name;\n        string logoLink;\n        int16 partyId; // -1 for individual candidates\n        uint32 votes;\n    }\n    \n    struct Voter {\n        bool canVote;\n        uint32 pinCode;\n    }\n    \n    uint8 public phase = 1; // 1 for registration, 2 for voting, 3 for result declared\n    mapping (address => Voter) voters;\n    mapping (uint32 => Candidate[]) public districtToCandidates;\n    PoliticalParty[] public parties;\n    uint32[] pinCodes;\n    uint public votingPeriod;\n    \n    event PoliticalPartyCreated(string _name, string _logoLink);\n    event CandidateCreated(string _name, string _logoLink, int16 _partyId, uint32 _pinCode);\n    event VoterAdded(address _id);\n    event Vote(address _id);\n\n    modifier beforeEndTime() {\n        require(phase == 2 && block.timestamp < votingPeriod, \"Invalid Phase\");\n        _;\n    }\n\n    modifier afterEndTime() {\n        require(phase == 2 && block.timestamp > votingPeriod, \"Invalid Phase\");\n        _;\n    }\n\n    function changePhase(uint8 _phase) private {\n        phase = _phase;\n    }\n    \n    function startVoting() external onlyOwner {\n        require(phase == 1, \"Invalid Phase\");\n        votingPeriod = block.timestamp + 1 days;\n        changePhase(2);\n    }\n\n    function createPoliticalParty(string calldata _name, string calldata _logoLink) external onlyOwner returns(uint) {\n        require(phase == 1, \"Registration Phase is Over\");\n        parties.push(PoliticalParty(_name, _logoLink, 0));\n        emit PoliticalPartyCreated(_name, _logoLink);\n    }\n    \n    function addCandidate(string calldata _name, string calldata _logoLink, int16 _partyId, uint32 _pinCode) external onlyOwner {\n        require(phase == 1, \"Registration Phase is Over\");\n        require(_partyId < int16(parties.length) && _partyId >= -1, \"Invalid Political Party\");\n        if(districtToCandidates[_pinCode].length == 0){\n            pinCodes.push(_pinCode);\n        }\n        districtToCandidates[_pinCode].push(Candidate(_name, _logoLink, _partyId, 0));\n        emit CandidateCreated(_name, _logoLink, _partyId, _pinCode);\n    }\n    \n    function addVoter(address _voterAccount ,uint32  _pinCode) external onlyOwner {\n        require(phase == 1,\"Registration Phase is Over\");\n        voters[_voterAccount] = Voter(true, _pinCode);\n        emit VoterAdded(_voterAccount);\n    }\n    \n    function vote(uint16 _candidateId) external beforeEndTime{\n        Voter storage myVoter = voters[msg.sender];\n        require(myVoter.pinCode > 0, \"Voter is not Registered\");\n        require(myVoter.canVote, \"Voter has already Voted\");\n        require(_candidateId >= 0 && _candidateId < districtToCandidates[myVoter.pinCode].length);\n        Candidate storage myCandidate = districtToCandidates[myVoter.pinCode][_candidateId];\n        myCandidate.votes++;\n        myVoter.canVote = false;\n        emit Vote(msg.sender);\n    }\n    \n    function computeResult() external onlyOwner afterEndTime{\n        require(phase == 2, \"Invalid Phase\");\n        for(uint16 i=0 ; i<pinCodes.length ; i++){\n            uint32 currPinCode = pinCodes[i];\n            Candidate memory winner = districtToCandidates[currPinCode][0];\n            for(uint16 j = 1; j<districtToCandidates[currPinCode].length; j++){\n                if(winner.votes < districtToCandidates[currPinCode][j].votes){\n                    winner = districtToCandidates[currPinCode][j];\n                }\n            }\n            if(winner.partyId!=-1){\n                parties[uint16(winner.partyId)].seats++;\n            }\n        }\n        changePhase(3);\n    }\n}",
  "sourcePath": "/home/abhishek/Documents/Projects/react-projects/ElectionDapp/contracts/Election.sol",
  "compiler": {
    "name": "solc",
    "version": "0.5.16+commit.9c3226ce.Emscripten.clang"
  },
  "schemaVersion": "3.4.3",
  "updatedAt": "2021-10-30T04:53:03.706Z",
  "devdoc": {
    "methods": {
      "isOwner()": {
        "return": "true if `msg.sender` is the owner of the contract."
      },
      "owner()": {
        "return": "the address of the owner."
      },
      "renounceOwnership()": {
        "details": "Allows the current owner to relinquish control of the contract."
      },
      "transferOwnership(address)": {
        "details": "Allows the current owner to transfer control of the contract to a newOwner.",
        "params": {
          "newOwner": "The address to transfer ownership to."
        }
      }
    }
  },
  "userdoc": {
    "methods": {
      "renounceOwnership()": {
        "notice": "Renouncing to ownership will leave the contract without an owner. It will not be possible to call the functions with the `onlyOwner` modifier anymore."
      }
    }
  }
}